:020000040800F2
:10000000584500204901000829420008E16600081F
:100010002B4200082F420008334200080000000075
:10002000000000000000000000000000374200084F
:1000300039420008000000006B6600083B420008DF
:100040006301000863010008630100086301000800
:1000500063010008630100086301000863010008F0
:1000600063010008630100086301000863010008E0
:1000700063010008630100086301000863010008D0
:1000800063010008630100086301000863010008C0
:1000900063010008630100086301000863010008B0
:1000A00063010008630100086301000863010008A0
:1000B000434200086301000863010008630100086F
:1000C0006301000863010008630100086301000880
:1000D00063010008534200086342000873420008AD
:1000E0006301000863010008630100086301000860
:1000F0006301000863010008630100086301000850
:10010000630100086301000863010008630100083F
:10011000630100086301000863010008630100082F
:10012000630100086301000863010008630100081F
:10013000DFF810D009F05AF900480047D1680008EC
:10014000AFF3008058450020064880470648004726
:10015000FEE7FEE7FEE7FEE7FEE7FEE7FEE7FEE777
:10016000FEE7FEE74B020008310100080CB5002055
:10017000019000906C48006840F480306A49086043
:1001800000BF6948006800F4003000900198401CEE
:100190000190009818B90198B0F5A06FF1D16248AC
:1001A000006800F4003010B10120009001E0002050
:1001B00000900098012843D15C48006840F010008E
:1001C0005A4908600846006820F0030008600846A5
:1001D000006840F002000860534840685249486097
:1001E0000846406848600846406840F480604860BF
:1001F0000846406820F47C1048600846406840F497
:10020000E81048600846006840F08070086000BF51
:100210004548006800F000700028F9D04248406866
:1002200020F00300404948600846406840F0020062
:10023000486000BF3C48406800F00C000828F9D135
:100240000CBD10B5FFF792FF10BD10B53648006821
:1002500040F00100344908600846406834490840CD
:100260003149486008460068324908402E49086014
:100270000846006820F4802008600846406820F4A2
:10028000FE0048604FF41F008860FFF7DAFF4FF070
:1002900000602949086010BD10B50021002000222F
:1002A000214B5B6803F00C0121B1042906D0082919
:1002B00028D107E0214B224C236027E01F4B204C24
:1002C000236023E0184B5B6803F47010164B5B68E7
:1002D00003F48032022303EB904022B9194B4343CD
:1002E000174C23600DE0104B5B6803F4003323B11F
:1002F000144B4343124C236003E0104B4343104C18
:10030000236003E00D4B0E4C236000BF00BF064B83
:100310005B68C3F303130C4CE15C094B1B68CB40D7
:10032000074C236010BD0000001002400020024076
:100330000000FFF8FFFFF6FE08ED00E000127A0073
:100340000000002000093D00040000203149014365
:10035000314A1160704770B5002100230F22C47824
:1003600004B32D4C246804F4E064C4F5E064210A6D
:10037000C1F10403CA40447804FA03F184781440BC
:1003800021430901254C0678A155047804F01F0586
:100390000124AC4005786D11AD0005F1E025C5F8EC
:1003A000004109E0047804F01F050124AC401C4D15
:1003B0000678761145F8264070BD1A4A0A40024375
:1003C000154B1B1F1A60704739B1134A121D126872
:1003D0000243114B1B1D1A6006E00F4A121D1268E2
:1003E00082430D4B1B1D1A607047042808D14FF043
:1003F000E021096941F004014FF0E022116107E0BA
:100400004FF0E021096921F004014FF0E022116171
:10041000704700000000FA050CED00E000E400E089
:1004200080E100E080FFFF1F10B50446CC48844205
:1004300008D10121042000F02FFD0021042000F04C
:100440002BFD46E0C748844208D10121082000F076
:1004500023FD0021082000F01FFD3AE0C24884423D
:1004600008D10121102000F017FD0021102000F01C
:1004700013FD2EE0BD48844208D10121202000F068
:100480000BFD0021202000F007FD22E0B848844247
:1004900008D10121402000F0FFFC0021402000F0A5
:1004A000FBFC16E0B348844208D10121802000F013
:1004B000F3FC0021802000F0EFFC0AE0AE4884420B
:1004C00007D10121801500F0E7FC0021A01500F004
:1004D000E3FC10BD10B50121084600F0DDFC002151
:1004E000012000F0D9FC10BD2DE9F04102460025A5
:1004F0000026002000230024002791F803C00CF000
:100500000F0591F803C00CF0100CBCF1000F03D0E4
:1005100091F802C04CEA050591F800C0BCF1000F4B
:1005200031D0146800202BE04FF0010C0CFA00F3DE
:10053000B1F800C00CEA03069E4220D183004FF0C0
:100540000F0C0CFA03F7BC4305FA03FC4CEA040455
:1005500091F803C0BCF1280F06D14FF0010C0CFA42
:1005600000FCC2F814C00AE091F803C0BCF1480FC7
:1005700005D14FF0010C0CFA00FCC2F810C0401C71
:100580000828D1D31460B1F800C0BCF1FF0F34DDEE
:10059000546800202EE000F1080C4FF0010808FA22
:1005A0000CF3B1F800C00CEA03069E4221D183008F
:1005B0004FF00F0C0CFA03F7BC4305FA03FC4CEAAE
:1005C000040491F803C0BCF1280F05D100F1080C18
:1005D00008FA0CF8C2F8148091F803C0BCF1480F77
:1005E00007D100F1080C4FF0010808FA0CF8C2F826
:1005F0001080401C0828CED35460BDE8F0814FF62F
:10060000FF710180022181700421C1707047024690
:10061000002093680B400BB1012000E000207047E0
:100620000146886880B2704702460020D3680B40BC
:100630000BB1012000E0002070470146C86880B27D
:10064000704701617047416170470AB1016100E084
:1006500041617047C16070474FF480320A43826144
:100660008161826182698269704702460020434B42
:1006700018684FF68073184040EA021008433F4B59
:10068000186070473E49C8617047F0B50A460023BC
:1006900000240021002500F00046B6F1004F02D1F1
:1006A000364EF16901E0354E7168C0F3034583B2FF
:1006B00000F44016B6F5401F08D121F070612F4EAE
:1006C000766826F070662D4F7E6012E000F480168A
:1006D000B6F5801F06D1032606FA05F4A14341F0C2
:1006E000706106E0460D360103FA06F6B14341F0AB
:1006F000706122B1460D360103FA06F6314300F06F
:100700000046B6F1004F02D11C4EF16101E01B4ED4
:100710007160F0BD30B500228B071C0F0F2303FA68
:1007200004F2164B08338C1053F824309343134CC7
:1007300008348D1044F8253023468C1053F82430AB
:100740008C07240F00FA04F423430C4C08348D105A
:1007500044F8253030BD0A49DC310860704700009C
:1007600000080140000C014000100140001401404D
:1007700000180140001C0140002001400000014021
:100780000000204210B50446F748844209D10121F7
:10079000480500F08EFB00214FF4001000F089FBAB
:1007A00008E00121880500F084FB00214FF480005F
:1007B00000F07FFB10BD2DE9F04385B004460D46E7
:1007C0000026B1460427DFF8A483A6884FF6C07040
:1007D0000640684600F0D9FADDF80880E448B8FB26
:1007E000F0F01FFA80F946EA0906A68020884FF645
:1007F000FE71084020800026DE49286888420CD817
:1008000028684000B8FBF0F087B2042F00DA042714
:100810003E4309F10100208427E0E8884BF6FF7190
:10082000884206D1286800EB4000B8FBF0F087B2A0
:1008300009E0286800EBC00101EB0010B8FBF0F004
:1008400087B247F48047C7F30B0008B947F00107A8
:1008500047F4004006434FF4967009FB00F04FF454
:100860007A7190FBF1F0401C2084A683208840F030
:100870000100208026884FF6F5300640A888698957
:10088000084306432680A88929890843208105B0AA
:10089000BDE8F08341F288310160002181804BF690
:1008A000FF71C1800021018141814FF4804181812C
:1008B000704721B1028842F00102028004E0028800
:1008C0004FF6FE731A400280704721B1828842F4CD
:1008D0000062828004E082884FF2FF731A408280B7
:1008E000704721B1828842F48052828004E082887D
:1008F0004EF6FF731A408280704721B1028842F49D
:100900008072028004E002884FF6FF631A40028082
:10091000704721B1028842F40072028004E002882C
:100920004FF6FF531A400280704721B1028842F40B
:100930008062028004E002884FF6FF331A40028092
:1009400070470A46002181894FF60173194002F071
:10095000FE0319438181704721B1828942F001026F
:10096000828104E082894FF6FE731A4082817047CB
:1009700021B1028842F04002028004E002884FF672
:10098000BF731A40028070471AB183880B4383807B
:1009900002E083888B438380704701827047014661
:1009A000088AC0B2704712B141F0010102E04FF66F
:1009B000FE7319400182704708B50246002000907E
:1009C00000920098084400900098008808BD21B16A
:1009D000028842F40042028003E00288C2F30E0261
:1009E00002807047B1F5006F04D1028842F40062C2
:1009F000028004E002884FF2FF731A4002807047C1
:100A0000B1F5005F04D1028842F40052028004E094
:100A100002884DF6FF731A400280704721B10288A8
:100A200042F48052028004E002884EF6FF731A40BE
:100A300002807047B1F5006F04D1028842F4006271
:100A4000028004E002884FF2FF731A400280704770
:100A500021B1028842F02002028004E002884FF6B1
:100A6000DF731A40028070470146088B00127047FE
:100A700021B1028842F01002028004E002884FF6A1
:100A8000EF731A400280704721B9028842F0800259
:100A9000028004E002884FF67F731A40028070479C
:100AA000B1F5804F05D0828B4BF6FF731A408283DD
:100AB00003E0828B42F480428283704770B5024625
:100AC0000024002500230020958A138B1B0445EA8F
:100AD000030626F07F4404EA01068E4201D101207C
:100AE00000E0002070BD10B5014600200023002268
:100AF0008B8A0A8B120443EA020424F07F4010BD63
:100B00000CB50246002000230193009300920B0FC6
:100B1000019321F07F41019B1BB1009B1433009393
:100B200003E0090C009B18330093009B1B680B40EB
:100B30000BB1012000E000200CBD002221F07F421B
:100B4000D3438382704730B5024600200023948847
:100B500001F0E06504EA154321F07F41948A0C40DE
:100B600054B14BB1012008E00054004000127A005B
:100B700040420F00A0860100002030BD002221F07D
:100B80007F42D34383827047DF48006840F0010012
:100B9000DD49086008464068DC490840DA49486099
:100BA00008460068DA490840D749086008460068E6
:100BB00020F4802008600846406820F4FE00486069
:100BC0004FF41F0088607047CF49096821F48031D5
:100BD000CD4A11601146096821F480211160B0F5F9
:100BE000803F03D0B0F5802F0ED106E0C6490968DA
:100BF00041F48031C44A116007E0C349096841F4F7
:100C0000A021C14A116000E000BF00BF704710B5CD
:100C100001460022002300204A11012A02D1BA4CC9
:100C2000236806E0022A02D1B74C236A01E0B64CE1
:100C3000636A01F01F02012494401C400CB10120A2
:100C400000E0002010BD38B50020009000240025F1
:100C500000BF3120FFF7DBFF05460098401C0090E5
:100C60000098B0F5A06F01D0002DF2D03120FFF731
:100C7000CEFF08B1012400E00024204638BD014623
:100C80000020A14A106820F0F80040EAC10010607E
:100C90007047A04908607047024600209A4B586888
:100CA00020F47C1042EA01031843974B58607047C8
:100CB00098490866704701460020934A506820F022
:100CC00003000843506070478F48406800F00C00F4
:100CD0007047014600208C4A506820F0F00008431D
:100CE0005060704701460020874A506820F4E06059
:100CF00008435060704701460020834A506820F442
:100D0000605040EAC1005060704729B17E4A527A73
:100D100002437D4B5A7204E07B4A527A82437A4BFB
:100D20005A7270477B49D8310860704701460020ED
:100D3000754A506820F440400843506070470021D5
:100D4000714A20321170704A82F82010012802D0B6
:100D500004280AD104E001216B4A2032117005E019
:100D60000521694A2032117000E000BF00BF7047C2
:100D70006949086070476449096A0143624A11621F
:100D80007047654944390860704730B5002100223A
:100D9000002400235C4D6D6805F00C0121B104298D
:100DA00005D0082923D105E05C4D056022E05B4DAC
:100DB00005601FE0544D6D6805F47012524D6D686A
:100DC00005F48034022505EB92421CB9544D55437D
:100DD00005600BE04C4D6D6805F400351DB1504DBC
:100DE0005543056002E04D4D5543056002E04B4D13
:100DF000056000BF00BF444D6D6805F0F0010909B2
:100E0000484D6B5C0568DD4045603F4D6D6805F4FD
:100E1000E061090A434D6B5C4568DD4085603A4DF1
:100E20006D6805F46051C90A3E4D6B5C4568DD4054
:100E3000C560354D6D6805F44041890B3A4D6B5CDA
:100E4000C568B5FBF3F5056130BD29B12E4A52697D
:100E500002432D4B5A6104E02B4A526982432A4BCC
:100E60005A61704729B1284A92690243264B9A6118
:100E700004E0254A92698243234B9A61704729B165
:100E8000214AD2690243204BDA6104E01E4AD2694A
:100E900082431D4BDA61704729B11B4AD268024375
:100EA000194BDA6004E0184AD2688243164BDA60C4
:100EB000704729B1144A12690243134B1A6104E0C6
:100EC000114A12698243104B1A6170471249403926
:100ED000086070470F49C86470470B49C871704774
:100EE0000948406A40F080700749486270470146EF
:100EF0000020054A92680A400AB1012000E0002063
:100F00007047014988727047001002400000FFF8E6
:100F1000FFFFF6FE000042428004424200127A00C7
:100F200000093D00140000202400002010B50446F4
:100F3000FE48844208D10121C014FFF7ADFF002113
:100F4000E014FFF7A9FFC4E0B4F1804F08D10121FC
:100F50000846FFF7AEFF00210120FFF7AAFFB8E027
:100F6000F348844208D101210220FFF7A2FF0021AB
:100F70000220FFF79EFFACE0EE48844208D1012139
:100F80000420FFF796FF00210420FFF792FFA0E066
:100F9000E948844208D101210820FFF78AFF002197
:100FA0000820FFF786FF94E0E448844208D101213D
:100FB0001020FFF77EFF00211020FFF77AFF88E066
:100FC000DF48844208D101212020FFF772FF002171
:100FD0002020FFF76EFF7CE0DA48844208D101212F
:100FE0004014FFF759FF00216014FFF755FF70E030
:100FF000D548844209D10121C804FFF74DFF0021E3
:101000004FF40020FFF748FF63E0D048844209D145
:1010100001210805FFF740FF00214FF48010FFF782
:101020003BFF56E0CA48844209D101214805FFF739
:1010300033FF00214FF40010FFF72EFF49E0C548B1
:10104000844208D101214020FFF733FF00214020D6
:10105000FFF72FFF3DE0C048844208D101218020E6
:10106000FFF727FF00218020FFF723FF31E0BB4877
:10107000844208D101218015FFF71BFF0021A01534
:10108000FFF717FF25E0B648844209D10121080483
:10109000FFF702FF00214FF48030FFF7FDFE18E05C
:1010A000B048844209D101214804FFF7F5FE002130
:1010B0004FF40030FFF7F0FE0BE0AB48844208D15C
:1010C00001218804FFF7E8FE00214FF48020FFF79C
:1010D000E3FE10BD00220288944B98420ED0994B3B
:1010E00098420BD0B0F1804F08D0914B984205D078
:1010F000904B984202D0904B984204D14FF68F7398
:101100001A404B881A438D4B984207D08C4B98421B
:1011100004D04FF6FF431A40CB881A4302808B88D5
:1011200083850B880385814B98420BD0854B984271
:1011300008D08B4B984205D08A4B984202D08A4BFC
:10114000984201D10B7A038601238382704770B5E0
:10115000002400220023058C4FF6FE7635400584DE
:10116000028C8388048B4FF68F752C40B51E2C4063
:101170000D882C43751E2A400D892A434D882A4329
:101180006A4DA8420BD06F4DA84208D0744DA842BA
:1011900005D0744DA84202D0734DA84213D14FF62A
:1011A000F7752A404D892A434FF6FB752A408D88F2
:1011B0002A434FF6FF652B404FF6FF552B408D8994
:1011C0002B43CD892B4383800483CD88858602847D
:1011D00070BD70B5002400220023058C4FF6EF7619
:1011E00035400584028C8388048B48F6FF752C40BB
:1011F0004FF6FF452C400D884FF6FF7606EA052591
:101200002C434FF6DF752A400D8906EA05152A435F
:101210004D8806EA05152A43444DA84202D0494D9F
:10122000A8421DD14FF67F752A404D894FF6FF76B3
:1012300006EA05152A434FF6BF752A408D8806EA4F
:1012400005152A434FF6FF352B404FF2FF752B4013
:101250008D8906EA85052B43CD8906EA85052B4352
:1012600083800483CD880587028470BD70B5002417
:1012700000220023058C4FF6FF6635400584028C62
:101280008388848B4FF68F752C404FF6FC752C406D
:101290000D882C434FF6FF552A400D894FF6FF76F7
:1012A00006EA05252A434D8806EA05252A431F4DEF
:1012B000A84202D0234DA8421DD14FF2FF752A400B
:1012C0004D894FF6FF7606EA05252A434FF6FF358E
:1012D0002A408D8806EA05252A434EF6FF752B40E5
:1012E0004DF6FF752B408D8906EA05152B43CD89F8
:1012F00006EA05152B4383808483CD888587028485
:1013000070BD70B5002200230024058C4EF6FF76D8
:1013100035400584038C8488828B48F6FF752A400B
:101320004FF6FF452A400D8820E00000002C0140C8
:101330000004004000080040000C00400010004085
:101340000014004000340140004C014000500140B6
:101350000054014000180040001C004000200040E4
:101360000040014000440140004801404FF6FF7634
:1013700006EA05252A434DF6FF752B400D8906EA3E
:1013800005352B434D8806EA05352B43FA4DA84217
:1013900002D0FA4DA84208D14BF6FF752C408D893A
:1013A0004FF6FF7606EA85152C4384808283CD882C
:1013B000A0F84050038470BD828B4FF2FF331A4077
:1013C0008283828B4FF6FF7303EA01231A438283E1
:1013D0007047F0B50C461546002200210026078C08
:1013E0004EF6FF7C07EA0C070784828B018C4FF6D0
:1013F000FF7707EA043640F6FF473A404FF6FF779B
:1014000007EA05273A434FF6FF7707EA03373A43DF
:10141000D94FB8420ED0D94FB8420BD0B0F1804F5F
:1014200008D0D74FB84205D0D64FB84202D0D64FD9
:10143000B84206D14DF6FF77394046F4805739431C
:1014400005E047F6FF57394044F48057394382831B
:101450000184F0BD828B4FF6F3731A408283828B36
:101460000A4382837047F0B50C46154600220021DE
:101470000026078C4FF6FF6C07EA0C070784828B67
:10148000018C4FF6FF7707EA04264FF60C773A40B7
:101490004FF6FF7707EA03172F433A43B64FB84298
:1014A0000ED0B64FB8420BD0B0F1804F08D0B44F39
:1014B000B84205D0B34FB84202D0B34FB84206D1BC
:1014C0004FF6FF57394046F48077394305E04FF235
:1014D000FF57394044F48077394382830184F0BD5B
:1014E000028B4FF2FF331A400283028B4FF6FF73D9
:1014F00003EA01231A4302837047F0B50C461546F0
:10150000002200210026078C4FF6EF7C07EA0C072B
:101510000784028B018C4FF6FF7707EA041640F62A
:10152000FF473A404FF6FF7707EA03373A434FF653
:10153000FF7707EA05273A438F4FB8420ED08F4F07
:10154000B8420BD0B0F1804F08D08D4FB84205D0D3
:101550008C4FB84202D08C4FB84206D14FF6DF779D
:10156000394046F01007394305E04FF65F773940C0
:1015700044F01007394302830184F0BD028B4FF61B
:10158000F3731A400283028B0A4302837047F0B55B
:101590000C46154600220021068C4FF6FE773E4091
:1015A0000684028B018C4FF60C7632407E1C06EAD4
:1015B00003162E433243704EB0420ED06F4EB042EF
:1015C0000BD0B0F1804F08D06D4EB04205D06D4EBB
:1015D000B04202D06C4EB04206D14FF6FD7631409B
:1015E00044F00106314305E04FF6F576314044F012
:1015F0000106314302830184F0BD70B505460C46F7
:101600005D4885420ED05D4885420BD0B5F1804FD4
:1016100008D05B48854205D05A48854202D05A48D6
:10162000854200D100E000BF208850B92389A288FC
:1016300061882846FFF7ABFFE1882846FFF79EFF49
:1016400025E0208804280AD12389A28861882846B9
:10165000FFF753FFE1882846FFF742FF17E0208895
:1016600008280AD12389A28861882846FFF7FBFE53
:10167000E1882846FFF7EEFE09E02389A288618809
:101680002846FFF7A6FEE1882846FFF795FE70BDC5
:101690002DE9F04105460C4600260127608808B96F
:1016A000022600E00026A088012801D1022700E0E0
:1016B00001272088A0B92389A28861882846FFF7DE
:1016C00066FFE1882846FFF759FF23893A463146ED
:1016D0002846FFF712FFE1882846FFF701FF13E0D5
:1016E0002389A28861882846FFF707FFE1882846FA
:1016F000FFF7F6FE23893A4631462846FFF747FFB3
:10170000E1882846FFF73AFFBDE8F0810A884B8858
:101710001A438B881A43CB881A430B891A434B8987
:101720001A438B891A43A0F8442070474FF6FF7183
:10173000818000210180C1804180017270470021B9
:10174000018041808180C180018141818181C1818D
:101750007047002101804180012181800021C180EA
:10176000018170470021018041808180C180018119
:101770004181818170470000002C0140003401400C
:101780000004004000080040000C004021B1028825
:1017900042F00102028004E002884FF6FE731A4014
:1017A0000280704731B1B0F8442042F40042A0F802
:1017B000442005E0B0F84420C2F30E02A0F8442013
:1017C00070471AB183890B43838102E083898B437D
:1017D000838170478182704741EA0203A0F8483054
:1017E00070471AB183890B43838102E083898B435D
:1017F0008381704701894FF6F8721140018170476B
:101800000A46002101894FF68F7319401143018167
:10181000704730B504460D4629462046FFF7F0FFD5
:10182000208940F00700208130BD2DE9F0410446B9
:101830000D4616461F46602D06D13B460122314615
:101840002046FFF75AFE05E03B460122314620467E
:10185000FFF79DFE29462046FFF7D2FF208940F082
:1018600007002081BDE8F08130B50C4600210189D8
:10187000C9B24FF6FF7505EA0325154325432943F1
:10188000018130BD2DE9F04105460E4617469846C8
:10189000002443463A4631462846FFF7E5FF2C89A7
:1018A0004FF6F870044044F007044FF68F70044080
:1018B00044F070042C81BDE8F081F0B504460D467B
:1018C00016461F463B46324629462046FFF7CCFFC8
:1018D000208940F480402081F0BD018582827047DC
:1018E0000A46002101884FF68F7319401143018089
:1018F0007047F0B50C4615461E4600210022002315
:101900000189028B038C4FF6F877394021434FF65B
:10191000FC473A4040F201173A434FF6DD773B402F
:101920004FF6FF7707EA06172F433B4301810283F7
:101930000384F0BD0A460021018B4FF68F731940D6
:101940001143018370470A460021018B48F6FF735B
:1019500019404FF6FF7303EA0223194301837047CE
:101960000A460021818B4FF68F7319401143818302
:1019700070470A460021818B48F6FF7319404FF6E5
:10198000FF7303EA022319438183704721B1028860
:1019900042F08002028004E002884FF67F731A4012
:1019A0000280704721B1828842F00402828004E004
:1019B00082884FF6FB731A408280704721B182887B
:1019C00042F00802828004E082884FF6F7731A40E2
:1019D0008280704721B1828842F00102828004E057
:1019E00082884FF6FE731A40828070470A460021B3
:1019F000018B4FF6F77319401143018370470A4674
:101A00000021018B4FF2FF7319404FF6FF7303EA79
:101A100002231943018370470A460021818B4FF648
:101A2000F77319401143818370470A460021818B67
:101A30004FF2FF7319404FF6FF7303EA0223194375
:101A4000818370470A460021018B4FF6FB731940D2
:101A50001143018370470A460021018B4FF6FF3383
:101A600019404FF6FF7303EA0223194301837047BD
:101A70000A460021818B4FF6FB7319401143818385
:101A800070470A460021818B4FF6FF3319404FF60D
:101A9000FF7303EA02231943818370470A4600213A
:101AA000018B4FF67F7319401143018370470A463B
:101AB0000021018BC1F30E014FF6FF7303EA0223ED
:101AC0001943018370470A460021818B4FF67F73CB
:101AD00019401143818370470A460021818BC1F36D
:101AE0000E014FF6FF7303EA022319438183704707
:101AF0000A460021018C4FF6FD7319401143018401
:101B000070470A460021018C4FF6F77319401143C4
:101B1000018470470A460021018C4FF6DF7319409B
:101B20004FF6FF7303EA02131943018470470A4614
:101B30000021018C4FF67F7319404FF6FF7303EAC3
:101B400002131943018470470A460021018C4FF6A5
:101B5000FF5319404FF6FF7303EA02231943018430
:101B600070470A460021018C4FF2FF7319404FF66F
:101B7000FF7303EA02231943018470470A460021D8
:101B8000018C4DF6FF7319404FF6FF7303EA0233E1
:101B900019430184704730B5002301248C40A3B25F
:101BA000048C9C430484048C02FA01F5ADB22C43EE
:101BB000048430BD30B5002304248C40A3B2048CCF
:101BC0009C430484048C02FA01F5ADB22C430484D6
:101BD00030BD70B50346002000241846183001259A
:101BE0008D40ACB21D8CA5431D8409B1082909D1D3
:101BF00000EB6100056825F0700505600568154378
:101C000005600EE00D1FC5F34E052844056825F458
:101C1000E045056005684FF6FF7606EA0226354383
:101C2000056070BD21B1028842F00202028004E02A
:101C300002884FF6FD731A400280704721B1028876
:101C400042F00402028004E002884FF6FB731A405F
:101C50000280704721B1828842F08002828004E0D5
:101C600082884FF67F731A408280704702884FF651
:101C7000F7731A40028002880A4302807047828804
:101C80004FF68F731A40828082880A4382807047A1
:101C900002894FF6F8731A40028102890A430281D1
:101CA000704702894FF67F731A40028102890A4306
:101CB00002817047818470478185704781867047B3
:101CC0000187704781877047A0F8401070470288ED
:101CD0004FF6FF431A40028002880A430280704791
:101CE0000146888E70470146088F70470146888FED
:101CF00070470146B1F8400070470146888C704734
:101D00000146088D704702460020138A0B400BB134
:101D1000012000E000207047CA430282704730B5BE
:101D20000246002000230024158A05EA0103958954
:101D300005EA010413B10CB1012000E0002030BD20
:101D4000CA4302827047000010B50446FB48844233
:101D500009D101218803FFF79FF800214FF480404B
:101D6000FFF79AF832E0F648844209D1012148048D
:101D7000FFF79FF800214FF40030FFF79AF825E0B5
:101D8000F048844209D101218804FFF792F800212C
:101D90004FF48020FFF78DF818E0EB48844209D11A
:101DA0000121C804FFF785F800214FF40020FFF758
:101DB00080F80BE0E548844208D101210805FFF7CF
:101DC00078F800214FF48010FFF773F810BD2DE96B
:101DD000F04786B005460E460024A24600BFA14645
:101DE0000027B08900B100BF2F462C8A4CF6FF7047
:101DF0000440F08804432C82AC894EF6F310044072
:101E0000B08831890843718908430443AC81AC8AA6
:101E10004FF6FF400440B0890443AC8201A8FEF7AE
:101E2000B4FFC648874202D1DDF810A001E0DDF81A
:101E30000CA0A88900F4004040B10AEBCA0000EBF6
:101E40000A1031684900B0FBF1F807E00AEBCA005C
:101E500000EB0A1031688900B0FBF1F86420B8FB90
:101E6000F0F004012009642101FB1089A88900F425
:101E7000004040B1322000EBC900B0FBF1F000F0AF
:101E80000700044308E0322000EB09106421B0FB96
:101E9000F1F000F00F0004432C8106B0BDE8F0879C
:101EA0004FF41651016000218180C18001810C2115
:101EB000418100218181704710B502460020108ABF
:101EC0004FF2FF0318400B884C8823438C88234330
:101ED000CC8823431843108210BD0021018041802B
:101EE0008180C180704721B1828942F40052828191
:101EF00004E082894DF6FF731A4082817047F0B585
:101F00000346002400260025002040F66A17B94247
:101F100000D100BF1846C1F3421401F01F0601278B
:101F200007FA06F5012C01D10C3004E0022C01D196
:101F3000103000E014301AB107682F43076002E048
:101F40000768AF430760F0BD1AB1838A0B438382F1
:101F500002E0838A8B4383827047028A4FF6F073D4
:101F60001A400282028A0A430282704782894FF233
:101F7000FF731A40828182890A438281704721B1AE
:101F8000828942F00202828104E082894FF6FD7369
:101F90001A4082817047028A4FF6DF731A4002822C
:101FA000028A0A430282704721B1028A42F48042C7
:101FB000028204E0028A4BF6FF731A4002827047E5
:101FC000C1F308028280704701468888C0F3080088
:101FD0007047818941F0010181817047028BD2B243
:101FE0000283028B42EA012202837047028B02F4D1
:101FF0007F420283028B0A430283704721B1828AA7
:1020000042F02002828204E0828A4FF6DF731A4097
:102010008282704721B1828A42F01002828204E0FB
:10202000828A4FF6EF731A408282704721B1828A0A
:1020300042F00802828204E0828A4FF6F7731A4067
:102040008282704721B1828942F40042828103E09A
:102050008289C2F30E028281704721B1828A42F4E2
:102060000062828204E0828A4FF2FF731A40828209
:102070007047828A4FF6FB731A408282828A0A4333
:102080008282704721B1828A42F00202828204E099
:10209000828A4FF6FD731A40828270470246002002
:1020A000B1F5007F00D100BF13880B400BB10120B8
:1020B00000E00020704701F40072B2F5007F00D10B
:1020C00000BFCA430280704770B502460024002357
:1020D0000025002040F66A16B14200D100BFC1F3CE
:1020E000421501F01F03012606FA03F3012D02D168
:1020F0009689334006E0022D02D1168A334001E072
:10210000968A33400C12012606FA04F416883440ED
:1021100013B10CB1012000E0002070BD10B5002209
:10212000002340F66A14A14200D100BF0A12012424
:102130009440A3B2DC43048010BD0000003801408D
:102140000044004000480040004C00400050004067
:102150002DE9F0470746884614461D46DDF82090D5
:1021600008EB0500801E83B23819C01E82B24146BA
:10217000384600F02FFF2C2000F0C8FD002604E0B8
:1021800039F8160000F0E6FD761C04FB05F0B042BD
:10219000F6D8BDE8F0872DE9F04706460F4614460D
:1021A0001D46DDF820907819801E83B23019C01EBC
:1021B00082B23946304600F00DFF2C2000F0A6FD1B
:1021C0004FF0000804E0484600F0C4FD08F10108A3
:1021D00004FB05F04045F6D8BDE8F08738B51C246F
:1021E0004FF6FF7000F039FFFC4848231A461F21C4
:1021F00000902046FFF7ACFFF948182380226B219E
:1022000000900020FFF7A4FF38BD08B54FF6FF701F
:1022100000F023FFF24818238022042100900020C0
:10222000FFF796FF48F210402423772219460090CA
:10223000082000F0D2FF08BD2DE9F04387B0064624
:1022400089461446012E01D1E6A500E0E9A54FF626
:10225000FF7014238022302100900020FFF79BFFA5
:102260004FF6FF7346F64D3232210020009501F003
:10227000B2F94FF6FF70142380224C210090002009
:10228000FFF789FFDFA04FF6FF7346F64D324E2170
:102290000090002001F09FF9484606F071FE0746C5
:1022A0003A460B46DAA101A807F0FAFA01A84FF660
:1022B000FF7346F64D324E210090482001F08BF915
:1022C0004FF6FF7014238022622100900020FFF758
:1022D00062FFD1A04FF6FF7346F64D3264210090A5
:1022E000002001F078F99CB1A07F88B1D4E9007397
:1022F0003A46CBA101A807F0D3FA01A84FF6FF7325
:1023000046F64D3264210090202001F064F909E086
:10231000C5A04FF6FF7346F64D3264210090202091
:1023200001F059F94FF6FF701423802276210090B6
:102330000020FFF730FFBDA04FF6FF7346F64D3289
:1023400078210090002001F046F99CB1A07F88B16F
:10235000D4E902733A46B2A101A807F0A1FA01A894
:102360004FF6FF7346F64D3278210090202001F0A1
:1023700032F909E0ACA04FF6FF7346F64D327821F2
:102380000090202001F027F907B0BDE8F08398B055
:102390004FF0FF3A00BF4FF0000B002401201790D0
:1023A000002016908146C82006F090F801F0E9FC64
:1023B00020B3002017904FF6FF7028238022302191
:1023C00000900020FFF7E7FE9AA04FF6FF734FF44E
:1023D000784232210090002001F0FDF898A04FF6DD
:1023E000FF734FF478424E210090002001F0F3F883
:1023F00040F6B83006F06AF8FFF707FF82E1179859
:1024000008B101F097FE601CC4B2322094FBF0F1D9
:1024100000FB1140C8B98E48006806F0B1FD0546C2
:102420000E468C48006806F0ABFD07468A480078E7
:102430003A460B4689A1CDE90056029004A807F060
:102440002FFA04A802F051FD00BF8B480078E0B3DA
:102450008A4801684068CDE90C1088488168C068E6
:10246000CDE90E10854800691090844840691190AC
:102470008248806912908148007F8DF84C007F4827
:10248000407F8DF84D007D48807F8DF84E007B4861
:10249000C07F8DF84F00794890F820008DF85000EB
:1024A000764890F821008DF85100744890F8220089
:1024B0008DF85200714890F823008DF853006F4852
:1024C00090F824008DF8540000E00BE04FF0010973
:1024D000012016900020684908705F4801780CA818
:1024E00002F02CFD02F099FD002852D0644D00202E
:1024F0006449087064A1284606F06DFA88B9322054
:1025000005F0E4FF00BF6248006800F4E060614944
:102510000843001D5E490860BFF34F8F00BF00BF36
:10252000FEE75DA1284606F056FA18B901204A498F
:1025300008702DE05BA1284606F04DFA28B901206D
:102540005A4908705A49087022E05AA1284606F0F4
:1025500042FA30B9022055490870012054490870E8
:1025600016E057A1284606F036FA30B903204F4945
:10257000087001204E4908700AE054A1284606F070
:102580002AFA28B9042049490870012048490870EE
:1025900000BF31480078504505D1169818B9D94583
:1025A00001D1142C17DBB9F1000F01D00CA800E009
:1025B000002002462748016827480078FFF73CFEC4
:1025C000BAF1000F06DB24480078022804D101206C
:1025D0004149087089E092E080E0000002A2000812
:1025E00082CA0008B5B1C7B0D7B4CCAC3ACBA4B559
:1025F000B9210000B5B1C7B0D7B4CCAC3AD5FDB362
:10260000A3000000BACFBCD3CBD9B6C83A000000B3
:10261000252E326620670000CEB3B6C83A0000000F
:10262000252E3466000000002D2D0000BEADB6C87A
:102630003A000000B4ABB8D0C6F7B4EDCEF300005A
:10264000C7EBBCECB2E9493243BDD3CFDF00000099
:10265000400000203C00002038000020533A414355
:10266000433A252E32662C47595A3A252E31662C8C
:102670005354413A25640000680000209001002076
:10268000400200206F0000205245534554000000D6
:102690000CED00E00000FA0546414C4C5F45564504
:1026A0004E5400004C4546545F4F4E00340000200D
:1026B000350000204C4546545F4F46460000000060
:1026C00052494748545F4F4E000000005249474866
:1026D000545F4F464600000036000020FD48007859
:1026E000032802D10220FC490870FA4800784FFA0A
:1026F00080FAFA480068CB460020169000240A2091
:1027000005F0E4FE7BE670B504460D4615B903F00E
:10271000A7FE70BD14B903F007FF10E0012C07D12C
:102720000021012003F064FE012003F0B2F906E06D
:102730000021084603F05CFE002003F0AAF900BF68
:10274000E7E708B500260027002500200090804616
:10275000002403F085FE0A2005F0B8FEF6E0DD480F
:102760000078012817D103260027002500BF0FE0BD
:1027700001210020FFF7C7FF642005F0A7FE00211C
:102780000846FFF7C0FF642005F0A0FE681CC5B234
:10279000052DEDDBDAE0D248007800283AD0D148A8
:1027A00090F800900020CE490870B9F1010F09D0CF
:1027B000B9F1020F12D0B9F1030F14D0B9F1040F1F
:1027C00022D11CE02246611CCCB20121002003F082
:1027D0008AFE03F067F94FF0010816E003F040FEAF
:1027E0004FF0000811E02246611CCCB2002101200C
:1027F00003F079FE03F056F94FF0020805E003F00C
:102800002FFE4FF0000800E000BF00BF00260027A9
:1028100000259BE0002E43D1B348007828B10098F2
:1028200018B90120009002260025AF48007808B9A9
:1028300000200090A7480078022805D14FF000083A
:102840000126012700252BE0A2480078032805D1A6
:102850004FF0000801260227002521E0B8F1000F03
:1028600004D100210846FFF74EFF15E0B8F1010F33
:1028700009D12246611CCCB20121002003F033FEB5
:1028800003F010F908E02246611CCCB200210120BF
:1028900003F029FE03F006F9782005F017FE55E055
:1028A000012E2BD14FF00009012F01D0012000E0B3
:1028B00000208246012F01D1012000E00020834644
:1028C00011E08748007800B110E02246611CCCB2CC
:1028D0005946504603F007FE03F0E4F8782005F06F
:1028E000F5FD09F17809B9F5FA6FEAD300BF0021C7
:1028F0000846FFF708FF0026002727E0022E24D114
:102900007948007838B900210846FFF7FCFE002618
:10291000002000901AE0002513E07348007800B909
:1029200011E001210020FFF7EEFE642005F0CEFD4E
:1029300000210846FFF7E7FE642005F0C7FD681C8C
:10294000C5B2052DE9DB00BF00E000BF07E70EE0E0
:1029500020216648FDF777FE642005F0B7FD2021B1
:102960006248FDF76EFE40F26C7005F0AFFDEFE7D8
:1029700008B500254FF4FA6005F0A8FD33E068467D
:1029800001F068FD0446ECB900255949009808603B
:10299000009806F0C2FA574908800120564908708D
:1029A0005649009806F01CFB03D201204E490870DE
:1029B00015E05349009806F01DFB10D200204A494B
:1029C00008700CE0002048490870681CC5B2052D4D
:1029D00005DB03E04EF6602005F078FDFAE74FF4E2
:1029E000FA7005F073FDCAE74FF4FA6005F06EFD6A
:1029F00007E000BF02F019F90028FBD10A2005F01A
:102A000065FDF6E70025002602F082F9642005F056
:102A10005DFD5EE000262DE006B12BE002F0FFF93F
:102A2000044604B10126012C06D0022C0AD0032C46
:102A30000FD0042C1BD113E001202A49087028492B
:102A4000087015E002202749087001202449087009
:102A50000EE003202349087001202149087007E097
:102A600004202049087001201D49087000E000BFC3
:102A700000BF00BF02F09DF90028CDD116480078B4
:102A800088B115480078012803D11EA002F0CCF9C6
:102A900006E011480078022802D11BA002F0C4F918
:102AA00000200D490870002D01DD681EC5B21248D6
:102AB000007858B10020104908700E480088C828D6
:102AC00004DA1DB911A002F0AFF93C25322005F05F
:102AD000FDFC9FE738000020360000203C0000206D
:102AE000350000203400002028000020000C0140A8
:102AF0002C0000203200002030000020000048435D
:102B000000005C43563700005638000044000000C7
:102B10000EB501F0C7FB01F042FD0020029003E07A
:102B200000BF0298401C0290424902988842F7D3A5
:102B300001F09AFD4FF4FA7005F0C8FC02F095F828
:102B400002F082F900F0A2F800F033F94FF480505F
:102B500039490860FFF742FB40F2DC5005F0B6FC53
:102B6000FFF753FB00F036FF01F01DFC052012219A
:102B700043020022CDE90010304931A005F0A2FB4C
:102B8000044614B1204605F055FB052014214302EC
:102B90000022CDE900102B492BA005F093FB044641
:102BA00014B1204605F046FB052013214FF4C06305
:102BB0000022CDE90010264926A005F083FB04463B
:102BC00014B1204605F036FB052016214FF4806332
:102BD0000022CDE90010214921A005F073FB044635
:102BE00014B1204605F026FB052018218B01002298
:102BF000CDE900101D491EA005F064FB044614B188
:102C0000204605F017FB05201A214FF4007300221F
:102C1000CDE9001019491AA005F054FB044614B17F
:102C2000204605F007FB03E04FF4FA7005F04EFC78
:102C3000FAE700004019010010080140E9290008E6
:102C4000677073008F23000873656E736F720000E6
:102C5000052A0008766F69636500000043270008B5
:102C60007475726E5F6C6564000000007129000865
:102C7000756C747261736F6E696300004F29000890
:102C800068656172746265617400000008B50121B5
:102C90000820FEF7E7F80320ADF800008DF80200E9
:102CA00010208DF803006946F848FDF71DFC01214E
:102CB0000420FEF7D7F841F2B000ADF80000032081
:102CC0008DF8020010208DF803006946F048FDF7EA
:102CD0000BFC08BD0021082115E000F0800222B1A4
:102CE0008022EB4B10331A6003E08022E84B143350
:102CF0001A602022E64B14331A601B1F1A6042062A
:102D0000100E4A1ED1B20029E7DC704710B5044608
:102D10001020DF49143108600220DC4914310860BA
:102D20002046FFF7D7FF1020D9491031086010BDA9
:102D300010B504461020D649143108600220D3494A
:102D4000103108602046FFF7C5FF1020D049103130
:102D5000086010BD10B504461020CD49143108603C
:102D60000220CA49103108602012FFF7B3FFE0B219
:102D7000FFF7B0FF1020C6491031086010BD30B514
:102D800005460C462846FFF7C1FF2046FFF7D0FF57
:102D900030BD10B50120BD4914310860642005F034
:102DA00095FB0120B94910310860322005F08EFBF7
:102DB00010BD10B5FFF76AFFFFF7EBFF1120FFF71B
:102DC000A5FF782005F082FBB120FFF79FFF0120CF
:102DD000FFF7AEFF2C20FFF7ABFF2D20FFF7A8FF7A
:102DE000B220FFF793FF0120FFF7A2FF2C20FFF78F
:102DF0009FFF2D20FFF79CFFB320FFF787FF0120E7
:102E0000FFF796FF2C20FFF793FF2D20FFF790FF91
:102E10000120FFF78DFF2C20FFF78AFF2D20FFF701
:102E200087FFB420FFF772FF0720FFF781FFC02064
:102E3000FFF76CFFA220FFF77BFF0220FFF778FF70
:102E40008420FFF775FFC120FFF760FFC520FFF763
:102E50006FFFC220FFF75AFF0A20FFF769FF00202B
:102E6000FFF766FFC320FFF751FF8A20FFF760FFDF
:102E70002A20FFF75DFFC420FFF748FF8A20FFF7F5
:102E800057FFEE20FFF754FFC520FFF73FFF0E204E
:102E9000FFF74EFF3620FFF739FFC020FFF748FF4E
:102EA000E020FFF733FF0F20FFF742FF1A20FFF764
:102EB0003FFF0F20FFF73CFF1820FFF739FF2F20BF
:102EC000FFF736FF2820FFF733FF2020FFF730FF02
:102ED0002220FFF72DFF1F20FFF72AFF1B20FFF7FF
:102EE00027FF2320FFF724FF3720FFF721FF0020D3
:102EF000FFF71EFF0720FFF71BFF0220FFF718FF59
:102F00001020FFF715FFE120FFF700FF0F20FFF76C
:102F10000FFF1B20FFF70CFF0F20FFF709FF172003
:102F2000FFF706FF3320FFF703FF2C20FFF700FF1A
:102F30002920FFF7FDFE2E20FFF7FAFE3020FFF7D5
:102F4000F7FE3020FFF7F4FE3920FFF7F1FE3F20B7
:102F5000FFF7EEFE0020FFF7EBFE0720FFF7E8FE8D
:102F60000320FFF7E5FE1020FFF7E2FE2A20FFF71F
:102F7000CDFE0020FFF7DCFE0020FFF7D9FE002089
:102F8000FFF7D6FE7F20FFF7D3FE2B20FFF7BEFE14
:102F90000020FFF7CDFE0020FFF7CAFE0020FFF75C
:102FA000C7FE9F20FFF7C4FEF020FFF7AFFE012011
:102FB000FFF7BEFEF620FFF7A9FE0020FFF7B8FEE0
:102FC0003A20FFF7A3FE0520FFF7B2FE2920FFF706
:102FD0009DFE10BDF0B504460D4616461F462A203C
:102FE000FFF794FE0020FFF7A3FEE0B2FFF7A0FE7C
:102FF0000020FFF79DFEB11CC8B2FFF799FE2B2001
:10300000FFF784FE0020FFF793FEE8B2FFF790FE83
:103010000020FFF78DFE791CC8B2FFF789FE2C2037
:10302000FFF774FEF0BD30B504460D462B46224630
:1030300029462046FFF7CEFF30BD70B504460D4649
:103040001646681C83B2601C82B229462046FFF7F0
:10305000C1FF3046FFF77EFE70BD70B506469F2368
:103060007F2200210846FFF7B5FF2C20FFF74EFE18
:10307000002408E0002503E03046FFF76BFE6D1CDE
:10308000A02DF9D3641C802CF4D370BD000C01403A
:103090000008014030B5014601F01F04C1F345139B
:1030A000CA0AE50205EB43151544A8B230BD2DE967
:1030B000F04706460F4690469A46002445464FEA9A
:1030C0004800C0F103094AE07A1991B2321990B26E
:1030D0005246FFF7B2FF7A1991B2321B90B25246B4
:1030E000FFF7ABFF7A1B91B2321990B25246FFF74D
:1030F000A4FF7A1B91B2321B90B25246FFF79DFF9C
:103100003A1991B2721990B25246FFF796FF3A19E6
:1031100091B2721B90B25246FFF78FFF3A1B91B2E9
:10312000721990B25246FFF788FF3A1B91B2721B98
:1031300090B25246FFF781FFB9F1000F05DA042083
:1031400000FB049000F1060907E0601B042101FB6D
:10315000009000F10A09681E85B2601C84B2AC427E
:10316000B2DBAC4237D17A1991B2321990B25246E1
:10317000FFF763FF7A1991B2321990B25246FFF706
:103180005CFF7A1B91B2321990B25246FFF755FF9D
:103190007A1B91B2321B90B25246FFF74EFF3A199A
:1031A00091B2721990B25246FFF747FF3A1991B2A5
:1031B000721B90B25246FFF740FF3A1B91B2721950
:1031C00090B25246FFF739FF3A1B91B2721B90B290
:1031D0005246FFF732FFBDE8F0872DE9FF4F83B07D
:1031E0008046894649464046FFF71DFF0598A0EBFB
:1031F00008050698A0EB0906002D02DB01200290CD
:1032000003E04FF0FF3002906D42002E02DB012000
:10321000019003E04FF0FF30019076424FEA450AFB
:103220004FEA460BB54219DDABEB0504002712E06F
:1032300049464046109AFFF700FF002C05DBA4EB3F
:103240000A04019848441FFA80F95C4402984044FB
:103250001FFA80F87F1CAF42EADD18E0AAEB0604F3
:10326000002712E049464046109AFFF7E6FE002C80
:1032700005DBA4EB0B04029840441FFA80F8544489
:10328000019848441FFA80F97F1CB742EADD07B075
:10329000BDE8F08F2DE9F84305460C4616461F465B
:1032A000DDF820804EF67D700090A81982B223468A
:1032B00021462846FFF791FF42F6651004F1010C04
:1032C000BC441FFA8CF305EB060CACF1010C1FFAA1
:1032D0008CF204F1010C1FFA8CF105EB060CACF139
:1032E000010C00901FFA8CF0FFF777FF42F6651093
:1032F0000090E01983B2A81982B2E01981B2284681
:10330000FFF76BFF4EF67D700090E01983B22A46FE
:1033100021462846FFF761FF04F1010CBC44ACF1E3
:10332000020C1FFA8CF305F1010CB444ACF1020C51
:103330001FFA8CF204F1010C1FFA8CF105F1010C5B
:103340001FFA8CF0CDF80080FFF747FFBDE8F88347
:103350002DE9F84305460C4616461F46DDF8208049
:10336000B8F1000F39D14EF67D700090A81982B2E5
:10337000234621462846FFF730FF42F6651004F148
:10338000010CBC441FFA8CF305EB060CACF1010CEC
:103390001FFA8CF204F1010C1FFA8CF105EB060CFC
:1033A000ACF1010C00901FFA8CF0FFF716FF42F60B
:1033B00065100090E01983B2A81982B2E01981B2B9
:1033C0002846FFF70AFF4EF67D700090E01983B2A1
:1033D0002A4621462846FFF700FFB8F1010F39D1F0
:1033E00042F665100090A81982B22346214628466D
:1033F000FFF7F3FE4EF67D7004F1010CBC441FFA9A
:103400008CF305EB060CACF1010C1FFA8CF204F105
:10341000010C1FFA8CF105EB060CACF1010C0090CD
:103420001FFA8CF0FFF7D9FE4EF67D700090E01980
:1034300083B2A81982B2E01981B22846FFF7CDFE07
:1034400042F665100090E01983B22A4621462846CC
:10345000FFF7C3FEB8F1020F39D14FF6FF700090AD
:10346000A81982B2234621462846FFF7B6FE4FF63A
:10347000FF7004F1010CBC441FFA8CF305EB060C41
:10348000ACF1010C1FFA8CF204F1010C1FFA8CF163
:1034900005EB060CACF1010C00901FFA8CF0FFF765
:1034A0009CFE4FF6FF700090E01983B2A81982B21B
:1034B000E01981B22846FFF790FE4FF6FF700090AA
:1034C000E01983B22A4621462846FFF786FEBDE86A
:1034D000F883F8B504460D4616461F4644F2082008
:1034E0002B463246294600902046FFF776FE48F2EA
:1034F00010406A1C93B291B2621C009090B23246A6
:10350000FFF76BFE44F208203B4622462946009016
:103510002046FFF762FE48F21040631C9AB26B1C13
:1035200099B2631C009098B23B46FFF756FE4FF6E7
:10353000FF703B463246394600902046FFF74DFE6D
:103540004FF6FF703B463246294600903046FFF763
:1035500044FEF8BDF8B506460F4614461D464FF624
:10356000FF703B462246394600903046FFF735FE55
:103570004FF6FF702B463246394600903046FFF733
:103580002CFE48F210406A1E93B291B2721C009059
:1035900090B22246FFF721FE44F208202B46224635
:1035A000294600903046FFF718FE48F21040631E8F
:1035B0009AB27B1C99B2631E009098B22B46FFF71B
:1035C0000CFE44F208202B46224639460090204645
:1035D000FFF703FEF8BD2DE9F84F074688469346EE
:1035E0009A46DDF828900097B3E099F8000080280B
:1035F0003DDA99F800600D2E05D1009F08F110000A
:103600001FFA80F830E0202E03DDA6F1200086B2FC
:1036100000E00026002422E000251CE004EB061058
:10362000E849085C80212941084040B108EB0402C8
:1036300091B27A1990B25A46FFF7FFFC09E0D345E0
:1036400007D008EB040291B27A1990B25246FFF704
:10365000F4FC681CC5B2082DE0DB601CC4B2102C61
:10366000DADB07F1080087B209F1010971E00026F1
:1036700068E006EB0610D44911F8100099F8001024
:1036800088425DD106EB0610CF4901EB400040783F
:1036900099F80110884253D100244FE0002520E022
:1036A00006EB0610C84901EB4000801C10F814100E
:1036B00080202841014041B108EB040291B27A19FF
:1036C00090B25A46FFF7B9FC09E0D34507D008EBA2
:1036D000040291B27A1990B25246FFF7AEFC681C10
:1036E000C5B2082DDCDB002524E006EB0610B64948
:1036F00001EB4000801C012101EB4401405C802172
:103700002941084048B108EB040291B27A19083205
:1037100090B25A46FFF791FC0AE0D34508D008EB77
:10372000040291B27A19083290B25246FFF785FC32
:10373000681CC5B2082DD8DB601CC4B2102CADDBF0
:10374000701C86B21B2E94DB09F1020907F11000F0
:1037500087B299F8000000287FF447AFBDE8F88FE2
:103760002DE9F05F0646884693469A46DDF8289094
:10377000E2E099F80000802835DA99F80070202FEF
:1037800003DDA7F1200087B200E00027002522E03A
:1037900000241CE005EB07108A49095C80202041C9
:1037A000014041B108EB050291B2321990B25A467C
:1037B000FFF743FC09E0D34507D008EB050291B2BF
:1037C000321990B25246FFF738FC601CC4B2082C84
:1037D000E0DB681CC5B2102DDADB09F1010906F146
:1037E000080086B2A8E000279EE007EB870000EB08
:1037F0004710764911F8100099F8001088427CD1E2
:1038000007EB870000EB4710704901EB4000407860
:1038100099F801108842F2D1002580E0002423E0CD
:1038200007EB870000EB4710684901EB4000801C64
:1038300005EB4501405C80212141084040B108EB87
:10384000050291B2321990B25A46FFF7F6FB09E031
:10385000D34507D008EB050291B2321990B2524617
:10386000FFF7EBFB601CC4B2082CD9DB002426E078
:1038700007EB870000EB4710544901EB4000801C28
:1038800005EB4501491C405C80212141084048B1BD
:1038900008EB050291B23219083290B25A46FFF78E
:1038A000CCFB0AE0D34508D008EB050291B23219EF
:1038B000083290B25246FFF7C0FB601CC4B2082C1D
:1038C000D6DB002427E007EB870000EB47103F49D9
:1038D00001EB4000801C05EB4501891C405C802108
:1038E0002141084050B108EB050291B23219103263
:1038F00090B25A46FFF7A1FB0BE013E0D34508D086
:1039000008EB050291B23219103290B25246FFF71D
:1039100094FB601CC4B2082CD5DB681CC5B2182D02
:10392000FFF67CAF781C87B2052FFFF65EAF09F17A
:10393000020906F1180086B299F8000000287FF409
:1039400018AFBDE8F09F2DE9F05F07468846924624
:103950009946002531E000242BE01D490A9801EB2F
:10396000C01000EB850010F804B000261DE0802098
:10397000304100EA0B0050B108EB050291B207EBB1
:10398000C402324490B25246FFF757FB0BE0CA45DF
:1039900009D008EB050291B207EBC402324490B2A1
:1039A0004A46FFF74AFB701CC6B2082EDFDB601CDC
:1039B000C4B2042CD1DB681CC5B2202DCBDBBDE822
:1039C000F09F000082E20008F4EF0008ACF300086A
:1039D00073E8000800B585B001210920FDF742FA1F
:1039E00001214805FDF74BFAC020ADF810001C205E
:1039F0008DF8130003208DF8120004A9F748FCF796
:103A000073FD0020ADF804004BF6FF70ADF8060022
:103A10000020ADF808004FF48060ADF80A00000106
:103A2000ADF80C00EE4800906946EE48FCF7C3FE86
:103A30000121EC48FCF73DFF05B000BD1CB500219D
:103A4000E848FCF736FF0020009003E000BF009834
:103A5000401C009000986428F8D301210920FDF74C
:103A600001FAC020ADF8040014208DF807000320EF
:103A70008DF8060001A9D948FCF736FDC021D748CA
:103A8000FCF7DFFD0020009003E000BF0098401C21
:103A9000009000986428F8D3002423E08021CF48C8
:103AA000FCF7B5FD00B11FE04021CC48FCF7CBFD91
:103AB0000020009003E000BF0098401C0090009898
:103AC0003228F8D34021C548FCF7BBFD0020009008
:103AD00003E000BF0098401C009000983228F8D303
:103AE000601CC4B2092CD9DB00BF8021BB48FCF7A5
:103AF000AAFD0020009003E000BF0098401C009049
:103B000000983228F8D34021B448FCF79AFD0020F1
:103B1000009003E000BF0098401C009000986428CB
:103B2000F8D38021AD48FCF78CFD0020009003E025
:103B300000BF0098401C009000986428F8D3FFF75D
:103B400049FF1CBD08B50021A648FCF7B2FE0020C5
:103B5000009003E000BF0098401C00900098B0F572
:103B60007A7FF7D301219F48FCF7A3FE08BD38B543
:103B700004460D4641F28830009001219948FCF737
:103B8000BCFE04E00098401E009000B949E0964950
:103B90009448FCF793FF0028F4D041F2883000905D
:103BA0000022D0218F48FCF7FEFE04E00098401E62
:103BB000009000B935E08D498A48FCF77FFF002866
:103BC000F4D041F28830009021468648FCF7E5FEAB
:103BD00004E00098401E009000B922E08349891C4F
:103BE0008048FCF76BFF0028F3D041F2883000904A
:103BF00029467C48FCF7D1FE04E00098401E009066
:103C000000B90EE07949891C7648FCF757FF002877
:103C1000F3D001217348FCF77CFE00207449087042
:103C200038BDFFF78FFF4FF0FF30F9E7F8B50646D4
:103C30000F46154641F28830009001216948FCF793
:103C40005CFE04E00098401E009000B982E06649E6
:103C50006448FCF733FF0028F4D041F2883000902C
:103C60000022D0215F48FCF79EFE04E00098401E31
:103C7000009000B96EE05D495A48FCF71FFF00282C
:103C8000F4D041F28830009031465648FCF785FE6A
:103C900004E00098401E009000B95BE05349891C85
:103CA0005048FCF70BFF0028F3D041F28830009019
:103CB00001214C48FCF721FE04E00098401E0090D2
:103CC00000B947E048494748FCF7F8FE0028F4D01F
:103CD00041F2883000900122D0214248FCF763FE77
:103CE00004E00098401E009000B933E03E49491CB2
:103CF0003C48FCF7E3FE0028F3D000241CE0681EDB
:103D0000A04203D100213748FCF70FFE41F2883072
:103D1000009004E00098401E009000B91AE032497B
:103D20003F313048FCF7CAFE0028F3D02D48FCF79D
:103D300036FE3855601CC4B2AC42E0DB0121294894
:103D4000FCF7F3FD01212748FCF7E3FD002028499B
:103D50000870F8BD01212348FCF7E7FDFFF7F2FEEC
:103D60004FF0FF30F5E708B50020009001226946CA
:103D70007520FFF75BFF08B1002008BD9DF800002B
:103D8000FBE770B50525FFF725FE08E0FFF7EBFF21
:103D90000446682C00D107E00A2004F097FB281E97
:103DA000A5F10101CDB2F1D100BF682C02D04FF0D6
:103DB000FF3070BD00216B20FFF7D9FE10B14FF02E
:103DC000FF30F6E70A2004F081FB07211920FFF7F6
:103DD000CEFE78B14FF0FF30EBE70000000C014061
:103DE000A08601000054004001000300820007008B
:103DF0005300002000211A20FFF7B9FE10B14FF048
:103E0000FF30D6E700211B20FFF7B1FE10B14FF0C5
:103E1000FF30CEE718211C20FFF7A9FE10B14FF0AC
:103E2000FF30C6E70020C4E71FB504460E226946EE
:103E30003B20FFF7FBFE40B1E8480078401CE74913
:103E400008704FF0FF3004B010BD9DF801009DF8E0
:103E5000001040EA012000B220809DF803009DF888
:103E6000021040EA012000B260809DF805009DF834
:103E7000041040EA012000B2A0809DF807009DF8E0
:103E8000061040EA012000B2A0819DF809009DF8CB
:103E9000081040EA012000B2E0809DF80B009DF878
:103EA0000A1040EA012000B220819DF80D009DF823
:103EB0000C1040EA012000B260810020C3E72DE928
:103EC000F04705460C46B5F9000005F007F8064630
:103ED0004FF08A4104F03CFE2060B5F9020004F086
:103EE000FDFF06464FF08A4104F032FE6060B5F9EE
:103EF000040004F0F3FF06464FF08A4104F028FE68
:103F0000A060A168084604F0F1FD8046616808469B
:103F100004F0ECFD81462168084604F0E7FD824686
:103F2000494604F08BFD0746414604F087FD0646EE
:103F300006F051F9E060B5F90A0004F0CFFF06463B
:103F4000A74904F005FE2061BDE8F0872DE9F047A0
:103F500004464FF004094FF0020A642614274FF07C
:103F60003208A0480088002814DD9E480088401EC2
:103F70009C49088000209C4908709C4908709C4915
:103F800008709C4908709C4908709C490870012081
:103F9000BDE8F08725690021284605F021F801D207
:103FA00085F000459649E06805F024F819D290485C
:103FB0000078401C8E49087008460078504513DB95
:103FC0008848068000208849087088490870884918
:103FD000087088490870884908708849087001206D
:103FE000D6E70020824908707F48007810B1012888
:103FF0003AD10FE08349E06804F0FCFF09D282491E
:10400000284604F0F7FF04D2012077490870774969
:10401000087029E07B49E06804F0ECFF1ED27A4981
:10402000284604F0E7FF19D270480078401C6F4919
:10403000087008460078484515DB6A48068000206D
:1040400069490870694908706949087069490870C8
:104050006949087069490870012099E700206249A0
:1040600008706249087000BF00BF5F4800780028F0
:1040700050D16649206904F0BDFF1BD25F4800782B
:10408000002855D15C480078012805D00020594906
:10409000087001205849087056480078401C55495E
:1040A000087008460078B84242DB544880F8008027
:1040B00003206DE75649206904F092FF1BD24F4858
:1040C000007830BB4C4890F90000401C28B100201B
:1040D00048490870FF204849087046480078401C4D
:1040E0004449087008460078B84221DB434880F80C
:1040F000008002204CE700203E4908703E490870CD
:104100003E480078002813DD3C480078401E3B49BB
:1041100008700DE0002037490870374908703748AB
:104120000078002804DD35480078401E33490870C7
:1041300000202DE700B589B005A8FFF775FE60B136
:1041400026480078032806DBFFF778FC0020234987
:1041500008703049087009B000BDBDF81400F8B906
:10416000BDF81600E0B9BDF81800C8B9BDF81A00CE
:10417000B0B9BDF81C0098B9BDF81E0080B925483B
:104180000078401C23490870084600780A2806DB9E
:10419000FFF7F7FD00201F49087010490870DAE7A3
:1041A00000201C490870694605A8FFF788FEBDF885
:1041B000140019490880BDF816004880BDF81800A1
:1041C0008880164903980860154904980860684675
:1041D000FFF7BCFE1349087000BFBCE75300002086
:1041E000000003434E0000204A0000204B00002046
:1041F0004C00002050000020520000205100002000
:104200000000204000006040000016430000A04174
:104210000000A0C154000020440000203C00002009
:104220004000002038000020704700F02AF800F01D
:1042300028F800F026F87047704710B504F07AFBB4
:1042400010BD10B502F076FE00F046F902F07FFED8
:1042500010BD10B502F06EFE00F054FA02F077FEC9
:1042600010BD10B502F066FE00F069FD02F06FFEB1
:1042700010BD10B502F05EFE00F095FE02F067FE84
:1042800010BD0648006800F4E06005490843001DC1
:1042900002490860BFF34F8F00BFFEE70CED00E05E
:1042A0000000FA0508B502F055F901210820FCF7D5
:1042B000D9FD2020ADF8000010208DF80300032068
:1042C0008DF8020069460448FCF70EF920210248E7
:1042D000FCF7B7F908BD0000000C014008B501214A
:1042E0000420FCF7BFFD0220ADF8000010208DF87F
:1042F000030003208DF802006946CF48FCF7F4F86C
:104300000221CD48FCF79FF90120ADF800002820DC
:104310008DF803006946C848FCF7E6F808BD00B50B
:1043200087B001210846FCF7AAFD4FF6FF70ADF8F3
:1043300014004720ADF810000020ADF81600ADF8CD
:10434000120004A94FF08040FCF7C4FE0020ADF835
:104350000400ADF806000120ADF808000020ADF81B
:104360000A000F20ADF80C0001A94FF08040FDF7C6
:1043700044F9012203219007FDF723FA1C208DF850
:10438000000001208DF8010000208DF802000120BE
:104390008DF803006846FBF7DEFF01218807FDF773
:1043A000F5F907B000BD10B5FFF798FFFFF7B7FFAD
:1043B000A248006830B900221146A1A002F061FBBA
:1043C0009E49086010BD0EB59C48006838B100BF1A
:1043D00000219A48006802F074FB0028F8D0002001
:1043E0009949086099490870994908709949087075
:1043F0009949088000214FF08040FDF75BFC0020C8
:10440000ADF80000ADF802000120ADF80400002076
:10441000ADF806000F20ADF8080069464FF0804067
:10442000FDF7EBF803214FF08040FDF789FC0221F6
:104430008148FCF706F90020029003E000BF0298D3
:10444000401C02900298B428F8D302217A48FCF765
:10445000FAF80EBD2DE9F04104467848006810B91D
:104460000120BDE8F081FFF7AEFF642002F0C8F93B
:10447000074639467148006802F023FB05460DB136
:104480000120EEE772480078012801DB0220E8E70E
:104490006E48007808B90220E3E76B480668782E7A
:1044A00001D20220DDE7304604F021FD07466B49CA
:1044B00004F04EFB20604FF08041206804F090FD36
:1044C00001D20320CDE76649206804F093FD01D2B4
:1044D0000420C6E70020C4E73EB502214807FDF7E7
:1044E0001EFC00283ED002214807FDF729FC594850
:1044F0000078E8B94FF08040FDF7F2FB564908809C
:104500000020ADF800000220ADF802000120ADF857
:1045100004000020ADF806000F20ADF80800694641
:104520004FF08040FDF769F801204A49087019E012
:104530004FF08040FDF7D4FB0546474800882C1A11
:10454000782C04D3404804600120404908700020C2
:10455000404908703948006818B13848006802F0CE
:10456000F1FA00BF01218807FDF7D9FBB0B10121A5
:104570008807FDF7E5FB36480078401C3449087091
:1045800008460078012809DB0020324908702B48D2
:10459000006818B12948006802F0D4FA3EBD00B5A1
:1045A00085B001210420FCF75DFC01214804FCF7E3
:1045B00066FC0420ADF8100018208DF813000320CD
:1045C0008DF8120004A91C48FBF78EFF0820ADF8F7
:1045D000100048208DF8130004A91748FBF784FF4A
:1045E0004FF4165000900020ADF80400ADF806001E
:1045F000ADF80800ADF80C000C20ADF80A006946D3
:104600001848FDF7E4FB01211648FDF76CFC05B0E6
:1046100000BD10B504460BE014F8011B1148FDF76E
:10462000CFFC00BF80210F48FDF738FD0028F9D0EE
:1046300020780028F0D110BD00080140580000206B
:1046400068637372303400005C000020600000205A
:104650006100002062000020640000200000684229
:104660000000E1430044004000B587B0012144F25E
:104670000400FCF7F7FB4FF40070ADF818001820A9
:104680008DF81B0003208DF81A0006A9FE48FBF7E1
:104690002BFF4FF48060ADF8180048208DF81B0008
:1046A00006A9F948FBF720FF4FF4165002900020AE
:1046B000ADF80C00ADF80E00ADF81000ADF8140028
:1046C0000C20ADF8120002A9F048FDF780FB012292
:1046D00040F22551ED48FDF712FC25208DF804002D
:1046E00001208DF8050000208DF8060001208DF8CE
:1046F000070001A8FBF72FFE0121E448FDF7F3FBBB
:1047000007B000BD10B540F22551E048FDF7DCFCD4
:10471000F8B1DE48FDF758FCC4B20A2C1AD1DC48C7
:10472000007800280BDDDA480078401ED949085C83
:104730000D2804D1D6480078401ED54908700020C5
:10474000D449D34A12788854D14908700120D249FB
:10475000087010E00D2C0ED0CD4800787F2807DAC5
:10476000CB490878411CCA4A1170CA490C5402E06E
:104770000020C749087010BD10B50346002413B1CE
:104780001878242801D0002010BD591C02E00878B8
:104790004440491C087810B108782A28F7D10878D5
:1047A0002A2801D00020EFE7491C087808B1487892
:1047B00008B90020E8E700220878302806DB0878EE
:1047C000392803DC08780007020E17E00878412832
:1047D00007DB0878462804DC0878C01F0007020EB3
:1047E0000CE00878612807DB0878662804DC087884
:1047F000C01F0007020E01E00020C5E748783028FE
:1048000007DB4878392804DC48783038C0B20243E6
:1048100017E04878412807DB4878462804DC4878C8
:104820003738C0B202430CE04878612807DB48788B
:10483000662804DC48785738C0B2024301E0002003
:10484000A2E7944201D101209EE700209CE710B529
:1048500004460A462146002300E0491C087810B1AE
:1048600008782C28F9D108782C2800D1491C0CE0B4
:1048700000E0491C087810B108782C28F9D1087894
:104880002C2802D1491C581CC3B2934202DA087882
:104890000028EDD1934207D1087828B108782C2858
:1048A00002D008782A2801D1002010BD0846FCE774
:1048B0002DE9FF5F06460F4692460022774B3046B1
:1048C000394604F09CFACDE9000104F03AFB834636
:1048D00004F012FB804689460022704B4046494650
:1048E00004F01BFA32463B46CDE9000104F012FA0F
:1048F000CDE9020100226A4BDDE9020104F07FFAF2
:1049000042464B46CDE9000104F060F904460D46ED
:10491000BAF1530F02D0BAF1570F01D185F000451B
:104920002046294604B0BDE8F09F2DE9F0478246B5
:1049300001215046FFF78BFF044614B1207841282F
:1049400004D0002057498877BDE8F08701205549F9
:10495000887700215046FFF77AFF044624B32046AB
:1049600004F032F806281FD36078303821783039C7
:1049700001EB810100EB41004A49C877E07830380B
:10498000A178303901EB810100EB4100454981F804
:104990002000607930382179303901EB810100EB5A
:1049A0004100404981F8210002215046FFF74FFFA6
:1049B00004464FF0000903215046FFF748FF074621
:1049C0000FB197F8009074B1B9F1000F0BD02046E9
:1049D00005F0ECFB05460E464A4628463146FFF7F1
:1049E00067FF304A03C204215046FFF730FF0446F8
:1049F0004FF0000905215046FFF729FF07460FB188
:104A000097F800907CB1B9F1000F0CD0204605F06A
:104A1000CDFB05460E464A4628463146FFF748FF7D
:104A2000204AC2E9020106215046FFF710FF044662
:104A30003CB1204605F0BAFB074604F0B4FA194928
:104A4000486107215046FFF702FF04463CB120466B
:104A500005F0ACFB074604F0A6FA1249886108216C
:104A60005046FFF7F4FE0446B4B3204603F0ACFF13
:104A7000062831D3607830382178303901EB810154
:104A800000EB410007490FE00008014000380140F9
:104A9000660000201001002067000020000059403F
:104AA00000004E40B801002081F82200E078303844
:104AB000A178303901EB810100EB4100804981F898
:104AC0002300607930382179303901EB810100EB26
:104AD00041007B4981F8240001207A49087000BF19
:104AE00032E72DE9F041054605212846FFF7AFFEE4
:104AF000044624B1204603F094FF7149487706210B
:104B00002846FFF7A4FE044624B1204603F089FF9F
:104B10006B49087708212846FFF799FE04463CB107
:104B2000204605F043FB064604F03DFA644908615F
:104B3000012065490870BDE8F08110B5044614B144
:104B40002078242800D010BD2046FFF715FE00B9BC
:104B5000F9E705225DA1601C03F054FF28B105228E
:104B60005CA1601C03F04EFF18B92046FFF7DDFE84
:104B70000EE0052259A1601C03F044FF28B1052274
:104B800058A1601C03F03EFF10B92046FFF7A9FFB3
:104B90004C480078002846D04B480078F0B348488D
:104BA000D0E90010514A116050604548D0E9021028
:104BB0009160D060424800691146086140484069F0
:104BC00048613F48806988613D48007F08773C48DC
:104BD000407F48773A48807F88773948C07FC877D8
:104BE000374890F8200081F82000354890F82100DF
:104BF00081F82100324890F8220081F822003048E4
:104C000090F8230081F823002D4890F8240081F8C3
:104C10002400012036490870002000E003E0294903
:104C200008702949087000BF8DE700B5A1B0314870
:104C3000007810B9002021B000BD002240F22551BB
:104C40002D48FDF75CF92D4901A803F0D2FE0020A4
:104C500028490870012240F225512748FDF74FF9F5
:104C600001A8FFF76AFF0120E5E77FB524A30FCB7A
:104C70008DE80F0000250026022407E01DF804003F
:104C80002844C5B27019C6B2601CC4B20C2CF5DB46
:104C90008DF80C508DF80D6000240DE01DF8041007
:104CA0001548FDF78DF900BF80211348FDF7F6F98F
:104CB0000028F9D0601CC4B20E2CEFDB7FBD0000D1
:104CC000B8010020690000206A0000204750524DC2
:104CD00043000000474E524D4300000047504747F5
:104CE00041000000474E474741000000900100206E
:104CF00068000020670000200038014010010020FB
:104D0000B56206080600C8000100000000000000AF
:104D100008B5012240F225514648FDF7F0F826205B
:104D20008DF8000002208DF8010000208DF80200AF
:104D300001208DF803006846FBF70DFB08BD10B598
:104D400040F225513B48FDF7BFF9F8B13948FDF76E
:104D50003BF9C4B20A2C1AD13748007800280BDD81
:104D600035480078401E3549085C0D2804D132488A
:104D70000078401E30490870002030492E4A1278D1
:104D800088542D49087001202D49087010E00D2C21
:104D90000ED0294800780F2807DA27490878411CE7
:104DA000254A117025490C5402E000202249087060
:104DB00010BD10B52248007808B9002010BD0022AF
:104DC00040F225511B48FDF79AF81C491D4803F095
:104DD00010FE00201A490870012240F225511548A2
:104DE000FDF78DF80120E9E7014611B10878432865
:104DF00001D0002070474878312806D0322806D0EC
:104E0000332806D0342808D105E00120F2E702203B
:104E1000F0E70320EEE70420ECE70020EAE700B526
:104E20000848FFF7E1FF00BD10B504462046FFF734
:104E3000F0FB10BD004400406B000020E0010020AA
:104E40006C000020F001002000B587B0012108208F
:104E5000FCF708F801218804FCF711F84FF4806092
:104E6000ADF8180018208DF81B0003208DF81A00EB
:104E700006A97948FBF738FB4FF40060ADF818003D
:104E800048208DF81B0006A97348FBF72DFB4FF453
:104E9000E13002900020ADF80C00ADF80E00ADF846
:104EA0001000ADF814000C20ADF8120002A96B48F8
:104EB000FCF78DFF012240F225516848FDF71FF8ED
:104EC00027208DF8040003208DF8050000208DF8C0
:104ED000060001208DF8070001A8FBF73CFA01212C
:104EE0005E48FDF700F807B000BD10B504460BE0C2
:104EF00014F8011B5948FDF763F800BF802157489B
:104F0000FDF7CCF80028F9D020780028F0D10D2149
:104F10005248FDF755F800BF80215048FDF7BEF814
:104F20000028F9D00A214D48FDF74AF800BF80213A
:104F30004A48FDF7B3F80028F9D010BD2DE9F04F2D
:104F40009DB0044689460CB1A07F10B91DB0BDE8E4
:104F5000F08FB9F1010F01D1012000E0002082465D
:104F60003F49606903F0C2FD8346584604F008F8E3
:104F7000CDE9060194F8210094F82010E27FCDE9F4
:104F8000040ACDE90221D4E90201CDE90001D4E906
:104F900000733A4633A109A804F082FC09A8FFF780
:104FA000A4FF00BFD2E710B540F225512B48FDF712
:104FB0008BF8F8B12948FDF707F8C4B20A2C1AD1CA
:104FC0003748007800280BDD35480078401E354909
:104FD000085C0D2804D132480078401E3049087022
:104FE000002030492E4A127888542D49087001203B
:104FF0002D49087010E00D2C0ED0294800783F286C
:1050000007DA27490878411C254A117025490C54B4
:1050100002E000202249087010BD10B52248007837
:1050200008B9002010BD002240F225510B48FCF7C2
:1050300066FF1C491D4803F0DCFC00201A4908707B
:10504000012240F225510548FCF759FF012018497B
:10505000087000BFE6E70000000C01400048004077
:10506000560EED3F4C41543A252E34662C4C4F4E93
:105070003A252E34662C54494D453A253032643A4F
:10508000253032643A253032642C53544154555300
:105090003A25642C53504545443A252E316600008C
:1050A0006D000020000200206E0000204002002061
:1050B0006F00002008B54FF48070FE4908600020A2
:1050C000009005E000BFBDF80000401C80B20090D9
:1050D000BDF8000040F2DC518842F3DB08BD08B5A2
:1050E0004FF40060F34908600020009005E000BF25
:1050F000BDF80000401C80B20090BDF8000040F2F6
:10510000DC518842F3DB08BD08B54FF41060E94973
:1051100008600020009005E000BFBDF80000401CC2
:1051200080B20090BDF8000040F2DC518842F3DB11
:1051300008BD2DE9F04100BFEFF31080074672B6BD
:10514000002645E206EB4600DB490D5C0024B5E095
:1051500005F08000002858D000BF4FF48070D5497A
:10516000091F086000BF00BF00BF00BF00BF00BF35
:1051700000BF00BF00BF00BF00BF00BF00BF00BF37
:1051800000BF00BF00BF00BF00BF00BF00BF00BF27
:1051900000BF00BF00BF00BF00BF00BF00BF00BF17
:1051A00000BF00BF00BF00BF00BF00BF00BF00BF07
:1051B00000BF00BF00BF00BF00BF00BF00BF00BFF7
:1051C00000BF00BF00BF00BF00BF00BF4FF4807032
:1051D000B849086000BF00BF00BF00BF00BF00BFEC
:1051E00000BF00BF00BF00BF00BF00BF00BF00BFC7
:1051F00000BF00BF00BF00BF00BF00BF00BF00BFB7
:1052000000BF00BF00BF00BF54E000BF4FF480707C
:10521000A849091F086000BF00BF00BF00BF00BF52
:1052200000BF00BF00BF00BF00BF00BF00BF00BF86
:1052300000BF00BF00BF00BF00BF00BF00BF00BF76
:1052400000BF00BF00BF4FF480709A49086000BFE4
:1052500000BF00BF00BF00BF00BF00BF00BF00BF56
:1052600000BF00BF00BF00BF00BF00BF00BF00BF46
:1052700000BF00BF00BF00BF00BF00BF00BF00BF36
:1052800000BF00BF00BF00BF00BF00BF00BF00BF26
:1052900000BF00BF00BF00BF00BF00BF00BF00BF16
:1052A00000BF00BF00BF00BF00BF00BF00BF00BF06
:1052B00000BF00BF6806050E601CC4B2082CFFF6D4
:1052C00047AF06EB46007C49084445780024B5E02A
:1052D00005F08000002858D000BF4FF48070754959
:1052E000091F086000BF00BF00BF00BF00BF00BFB4
:1052F00000BF00BF00BF00BF00BF00BF00BF00BFB6
:1053000000BF00BF00BF00BF00BF00BF00BF00BFA5
:1053100000BF00BF00BF00BF00BF00BF00BF00BF95
:1053200000BF00BF00BF00BF00BF00BF00BF00BF85
:1053300000BF00BF00BF00BF00BF00BF00BF00BF75
:1053400000BF00BF00BF00BF00BF00BF4FF48070B0
:105350005849086000BF00BF00BF00BF00BF00BFCA
:1053600000BF00BF00BF00BF00BF00BF00BF00BF45
:1053700000BF00BF00BF00BF00BF00BF00BF00BF35
:1053800000BF00BF00BF00BF54E000BF4FF48070FB
:105390004849091F086000BF00BF00BF00BF00BF31
:1053A00000BF00BF00BF00BF00BF00BF00BF00BF05
:1053B00000BF00BF00BF00BF00BF00BF00BF00BFF5
:1053C00000BF00BF00BF4FF480703A49086000BFC3
:1053D00000BF00BF00BF00BF00BF00BF00BF00BFD5
:1053E00000BF00BF00BF00BF00BF00BF00BF00BFC5
:1053F00000BF00BF00BF00BF00BF00BF00BF00BFB5
:1054000000BF00BF00BF00BF00BF00BF00BF00BFA4
:1054100000BF00BF00BF00BF00BF00BF00BF00BF94
:1054200000BF00BF00BF00BF00BF00BF00BF00BF84
:1054300000BF00BF6806050E601CC4B2082CFFF652
:1054400047AF06EB46001C49084485780024BAE0C3
:1054500005F0800000285DD000BF4FF48070154932
:10546000091F086000BF00BF00BF00BF00BF00BF32
:1054700000BF00BF00BF00BF00BF00BF00BF00BF34
:1054800000BF00BF00BF00BF00BF00BF00BF00BF24
:1054900000BF00BF00BF00BF00BF00BF00BF00BF14
:1054A00000BF00BF00BF00BF00BF00BF00BF00BF04
:1054B00000BF03E0140801408002002000BF00BFCD
:1054C00000BF00BF00BF00BF00BF00BF00BF00BFE4
:1054D00000BF00BF00BF4FF48070FE49086000BFEE
:1054E00000BF00BF00BF00BF00BF00BF00BF00BFC4
:1054F00000BF00BF00BF00BF00BF00BF00BF00BFB4
:1055000000BF00BF00BF00BF00BF00BF00BF00BFA3
:1055100000BF54E000BF4FF48070EE49091F0860DF
:1055200000BF00BF00BF00BF00BF00BF00BF00BF83
:1055300000BF00BF00BF00BF00BF00BF00BF00BF73
:1055400000BF00BF00BF00BF00BF00BF00BF00BF63
:105550004FF48070DF49086000BF00BF00BF00BF8C
:1055600000BF00BF00BF00BF00BF00BF00BF00BF43
:1055700000BF00BF00BF00BF00BF00BF00BF00BF33
:1055800000BF00BF00BF00BF00BF00BF00BF00BF23
:1055900000BF00BF00BF00BF00BF00BF00BF00BF13
:1055A00000BF00BF00BF00BF00BF00BF00BF00BF03
:1055B00000BF00BF00BF00BF00BF00BF00BF680644
:1055C000050E601CC4B2082CFFF642AF701CC6B2B8
:1055D0000A2EFFF6B7ADFFF76DFD07B962B6BDE85D
:1055E000F0812DE9F04100BFEFF31080074672B65D
:1055F000002645E206EB4600B7490D5C0024B5E005
:1056000005F08000002858D000BF4FF40060B14979
:10561000091F086000BF00BF00BF00BF00BF00BF80
:1056200000BF00BF00BF00BF00BF00BF00BF00BF82
:1056300000BF00BF00BF00BF00BF00BF00BF00BF72
:1056400000BF00BF00BF00BF00BF00BF00BF00BF62
:1056500000BF00BF00BF00BF00BF00BF00BF00BF52
:1056600000BF00BF00BF00BF00BF00BF00BF00BF42
:1056700000BF00BF00BF00BF00BF00BF4FF400600D
:105680009449086000BF00BF00BF00BF00BF00BF5B
:1056900000BF00BF00BF00BF00BF00BF00BF00BF12
:1056A00000BF00BF00BF00BF00BF00BF00BF00BF02
:1056B00000BF00BF00BF00BF54E000BF4FF4006058
:1056C0008449091F086000BF00BF00BF00BF00BFC2
:1056D00000BF00BF00BF00BF00BF00BF00BF00BFD2
:1056E00000BF00BF00BF00BF00BF00BF00BF00BFC2
:1056F00000BF00BF00BF4FF400607649086000BFE4
:1057000000BF00BF00BF00BF00BF00BF00BF00BFA1
:1057100000BF00BF00BF00BF00BF00BF00BF00BF91
:1057200000BF00BF00BF00BF00BF00BF00BF00BF81
:1057300000BF00BF00BF00BF00BF00BF00BF00BF71
:1057400000BF00BF00BF00BF00BF00BF00BF00BF61
:1057500000BF00BF00BF00BF00BF00BF00BF00BF51
:1057600000BF00BF6806050E601CC4B2082CFFF61F
:1057700047AF06EB46005849084445780024BAE094
:1057800005F08000002858D000BF4FF40060514958
:10579000091F086000BF00BF00BF00BF00BF00BFFF
:1057A00000BF00BF00BF00BF00BF00BF00BF00BF01
:1057B00000BF00BF00BF00BF00BF00BF00BF00BFF1
:1057C00000BF00BF00BF00BF00BF00BF00BF00BFE1
:1057D00000BF00BF00BF00BF00BF00BF00BF00BFD1
:1057E00000BF00BF00BF00BF00BF00BF00BF00BFC1
:1057F00000BF00BF00BF00BF00BF00BF4FF400608C
:105800003449086000BF00BF00BF00BF00BF00BF39
:1058100000BF00BF00BF00BF00BF00BF00BF00BF90
:1058200000BF00BF00BF00BF00BF00BF00BF00BF80
:1058300000BF00BF00BF00BF59E000BF4FF40060D1
:105840002449091F086000BF00BF00BF00BF00BFA0
:1058500000BF00BF00BF00BF00BF00BF00BF00BF50
:1058600000BF00BF00BF00BF00BF00BF00BF00BF40
:1058700000BF00BF00BF4FF400601649086000BFC2
:1058800000BF00BF00BF00BF00BF00BF00BF00BF20
:1058900000BF00BF00BF00BF00BF00BF00BF00BF10
:1058A00000BF00BF00BF00BF00BF00BF00BF00BF00
:1058B00000BF00BF00BF00BF00BF00BF00BF00BFF0
:1058C00000BF00BF00BF00BF00BF00BF00BF00BFE0
:1058D00000BF03E0140801409E02002000BF00BF8B
:1058E00000BF00BF00BF00BF00BF00BF00BF680611
:1058F000050E601CC4B2082CFFF642AF06EB460052
:10590000FE49084485780024B5E005F080000028B1
:1059100058D000BF4FF40060F949086000BF00BFD5
:1059200000BF00BF00BF00BF00BF00BF00BF00BF7F
:1059300000BF00BF00BF00BF00BF00BF00BF00BF6F
:1059400000BF00BF00BF00BF00BF00BF00BF00BF5F
:1059500000BF00BF00BF00BF00BF00BF00BF00BF4F
:1059600000BF00BF00BF00BF00BF00BF00BF00BF3F
:1059700000BF00BF00BF00BF00BF00BF00BF00BF2F
:1059800000BF00BF4FF40060DD49091D086000BF83
:1059900000BF00BF00BF00BF00BF00BF00BF00BF0F
:1059A00000BF00BF00BF00BF00BF00BF00BF00BFFF
:1059B00000BF00BF00BF00BF00BF00BF00BF00BFEF
:1059C00000BF54E000BF4FF40060CD49086000BF45
:1059D00000BF00BF00BF00BF00BF00BF00BF00BFCF
:1059E00000BF00BF00BF00BF00BF00BF00BF00BFBF
:1059F00000BF00BF00BF00BF00BF00BF00BF4FF42B
:105A00000060BF49091D086000BF00BF00BF00BFA4
:105A100000BF00BF00BF00BF00BF00BF00BF00BF8E
:105A200000BF00BF00BF00BF00BF00BF00BF00BF7E
:105A300000BF00BF00BF00BF00BF00BF00BF00BF6E
:105A400000BF00BF00BF00BF00BF00BF00BF00BF5E
:105A500000BF00BF00BF00BF00BF00BF00BF00BF4E
:105A600000BF00BF00BF00BF00BF00BF00BF68068F
:105A7000050E601CC4B2082CFFF647AF701CC6B2FE
:105A80000A2EFFF6B7ADFFF72AFB07B962B6BDE8ED
:105A9000F08110B5044614B9FFF74BFB01E0FFF7A6
:105AA000A0FD10BD70B500BFEFF31081084604469D
:105AB00072B6002246E202EB4203924DE95C0020FE
:105AC000B5E001F08003002B58D000BF4FF4807385
:105AD0008B4D2B6000BF00BF00BF00BF00BF00BFE9
